:020000020000FC
:02000000FFC03F
:0200380020C1E5
:0200540019C1D0
:100200001FEF1AB9EFEFEDBFF8E0FEBFE8E9F2E04B
:1002100012E014BD15E015BD12E010936E0019E157
:1002200017BD15E610937C001FEE10937A007894AA
:1002300016C02BB9FDCF5F3F09F0FACF50E03BB9B4
:10024000603011F06F3F21F03F3F31F03395F3CF35
:10025000303011F03A95EFCF9FEF6927F0CF5F3F35
:1002600009F0E6CF50E075917BB903950F3F09F097
:10027000DFCF00E0E8E9F2E0DBCF8FB78F93239583
:100280005FEF8F918FBF18958FB78F934091790053
:1002900047BD8F918FBF1895808386898C8F9295EB
:1002A000989B9EA2A5A7AAADB0B3B6B9BCBEC1C467
:1002B000C6C9CBCED0D3D5D7DADCDEE0E2E4E6E8BF
:1002C000EAEBEDEEF0F1F3F4F5F6F8F9FAFAFBFCEF
:1002D000FDFDFEFEFEFFFFFFFFFFFFFFFEFEFEFD3A
:1002E000FDFCFBFAFAF9F8F6F5F4F3F1F0EEEDEBBC
:1002F000EAE8E6E4E2E0DEDCDAD7D5D3D0CECBC95B
:10030000C6C4C1BEBCB9B6B3B0ADAAA7A5A29E9BD8
:100310009895928F8C898683807C797673706D6ACC
:100320006764615D5A5855524F4C494643413E3BC4
:10033000393634312F2C2A282523211F1D1B19174C
:10034000151412110F0E0C0B0A09070605050403FC
:100350000202010101000000000000000101010291
:1003600002030405050607090A0B0C0E0F111214EF
:100370001517191B1D1F212325282A2C2F31343630
:10038000393B3E414346494C4F5255585A5D616492
:0A039000676A6D707376797C800057
:00000001FF
